:020000040000FA
:1000000002023B12039512002D12039C120381126F
:10001000005512005E1202C71202ED12003E1203DA
:10002000311203451203741203670203A375D4F05F
:0A00300075F13F43804075A43C22A7
:10003B00020076E5D85440FFE5F75480FE53D8BF55
:0E004B0053F77FEF42D8EE42F722E4F5A922E8
:10005B00020313C2DE75D908759E0375FA0453F7B4
:07006B00F843F743D2DE2247
:1000730002038BC0E0C0D030C20302015AE5C05472
:10008300F0604F24F0700302011724D070030201C3
:100093001B24F0700302014E24306003020152C29C
:1000A300C5751901751A01E5C220E003020160E577
:1000B3000F7002806AE50FB40102806DE50FB40290
:1000C300028070E50FB403058508C2807875C2AA63
:1000D3008073E51AC39402500785C20F051A803056
:1000E300E50F700585C20B801CE50FB4010585C2C1
:1000F3000A8012E50FB4020585C2098008E50FB432
:10010300030985C208051A050F800585C210051A63
:10011300D2C18049C2C4804530C142E50F70058514
:100123000BC28021E50FB40105850AC28017E50FD4
:10013300B402058509C2800DE50FB403058508C225
:10014300800375C2AA0519050F8012C2C4800E531D
:10015300C17F43C1808000C2C5C2C4D2C1C2C0D066
:10016300D0D0E032E4F511F512F513F514F515F5D9
:1001730016F517F5181200037F03780C74FDF608C3
:10018300DFFCC374FF9512F51C74079511F51BC3AF
:1001930074FF9514F51E74079513F51D7DB07C044B
:1001A300ED1D70011CED4C70F7E50BFE7A00E425A4
:1001B3000AF512EA3EF511E509FEE42508F514EA0D
:1001C3003EF513E516B51211E515B5110CE51865E5
:1001D300147004E517651360C3D3E51294FFE511AA
:1001E300940740067511077512FFD3E51494FFE5D4
:1001F30013940740067513077514FFC374FF951214
:10020300F51C74079511F51BC374FF9514F51E7443
:10021300079513F51D85111585121685131785147A
:10022300187C047DB0D3ED9400EC940050030201DC
:100233009FED1D70F01C80ED787FE4F6D8FD75818D
:1002430020020282020167E493A3F8E493A340032C
:10025300F68001F208DFF48029E493A3F85407241D
:100263000CC8C333C4540F4420C8834004F45680DD
:100273000146F6DFE4800B01020408102040809061
:100283000358E47E019360BCA3FF543F30E5095457
:100293001FFEE493A360010ECF54C025E060A84085
:1002A300B8E493A3FAE493A3F8E493A3C8C582C87C
:1002B300CAC583CAF0A3C8C582C8CAC583CADFE951
:1002C300DEE780BEE5D85440FFE5F75480FE53D8FF
:1002D300BF53F77F75DA4375FC0443F78075FC045D
:1002E30053F77FEF42D8EE42F722E5D85440FFE5BB
:1002F300F75480FE53D8BF53F77F75DB4375EA0489
:1003030043F78075EA0453F77FEF42D8EE42F722B2
:10031300C0E053F7DF43F780E51CF5FBE51BF5FC75
:10032300E51EF5E9E51DF5EA53F77FD0E032AF8826
:10033300758800758C38758A13758D34758B348F79
:100343008822E59154045391FB75933875929E432B
:100353009104429122C100010B00010A000109002E
:100363000108000053C1FC43C19D75D7D675D6FF64
:1003730022758E01758920438840758E012275E1AF
:100383000475E20275E3402253C17F43C180539158
:100393007F327597DE7597AD22E4F5A575D5FF22FB
:0703A30075E69175A88022A8
:00000001FF
