:020000040000FA
:1000000002020A12035712002D12035E120343125A
:10001000037312005E1202E11202F412036512026F
:10002000CD12030712033612032902036C75D4F0B4
:0A00300075F13F43804075A43C22A7
:10003B00020076E5D85440FFE5F75480FE53D8BF55
:0E004B0053F77F2253F77FEF42D8EE42F722A1
:10005B00020296C2DE75D908759E0375FA0453F732
:07006B00F843F743D2DE2247
:1000730002034DC0E0C0D030C20302015AE5C054B0
:10008300F0604F24F0700302011724D070030201C3
:100093001B24F0700302014E24306003020152C29C
:1000A300C5751901751A01E5C220E003020160E577
:1000B3000F7002806AE50FB40102806DE50FB40290
:1000C300028070E50FB403058508C2807875C2AA63
:1000D3008073E51AC39402500785C20F051A803056
:1000E300E50F700585C20B801CE50FB4010585C2C1
:1000F3000A8012E50FB4020585C2098008E50FB432
:10010300030985C208051A050F800585C210051A63
:10011300D2C18049C2C4804530C142E50F70058514
:100123000BC28021E50FB40105850AC28017E50FD4
:10013300B402058509C2800DE50FB403058508C225
:10014300800375C2AA0519050F8012C2C4800E531D
:10015300C17F43C1808000C2C5C2C4D2C1C2C0D066
:10016300D0D0E032E4F511F512F513F514F515F5D9
:1001730016F517F5181200037F03780C74FDF608C3
:10018300DFFC1202B47DB07C04ED1D70011CED4C4C
:1001930070F7E50BFE7A00E4250AF512EA3EF51145
:1001A300E509FEE42508F514EA3EF513E516B51254
:1001B30011E515B5110CE51865147004E517651301
:1001C30060C3D3E51294FFE5119407400675110748
:1001D3007512FFD3E51494FFE513940740067513D6
:1001E300077514FF1202B4851115851216851317AE
:1001F3008514187C047DB0D3ED9400EC9400408505
:10020300ED1D70F31C80F0787FE4F6D8FD75812036
:10021300020251020167E493A3F8E493A34003F6B7
:100223008001F208DFF48029E493A3F85407240C37
:10023300C8C333C4540F4420C8834004F456800118
:1002430046F6DFE4800B010204081020408090038F
:100253001AE47E019360BCA3FF543F30E509541FA9
:10026300FEE493A360010ECF54C025E060A840B81C
:10027300E493A3FAE493A3F8E493A3C8C582C8CA9A
:10028300C583CAF0A3C8C582C8CAC583CADFE9DE6D
:10029300E780BEC0E053F7DF43F780E51CF5FBE5DD
:1002A3001BF5FCE51EF5E9E51DF5EA53F77FD0E004
:1002B30032C3E49512F51C74089511F51BC3E4953C
:1002C30014F51E74089513F51D22AF887588007503
:1002D3008C38758A13758D34758B348F8822120090
:1002E3003E75DA4375FC0443F78075FC0412004F36
:1002F3002212003E75DB4375EA0443F78075EA0476
:1003030012004F22E59154045391FB759338759273
:100313009E439104429122C100010B00010A000196
:1003230009000108000053C1FC43C19D75D7D67570
:10033300D6FF22758E01758920438840758E012270
:1003430075E10475E20275E3402253C17F43C18026
:1003530053917F327597DE7597AD22E4F5A575D578
:10036300FF2212003E1200522275E69175A88022E8
:04037300E4F5A922E2
:00000001FF
